{
  "_format": "hh-sol-artifact-1",
  "contractName": "Deployer",
  "sourceName": "contracts/CrowdFunding.sol",
  "abi": [
    {
      "inputs": [
        {
          "internalType": "uint256",
          "name": "_amount",
          "type": "uint256"
        },
        {
          "internalType": "string",
          "name": "_name",
          "type": "string"
        },
        {
          "internalType": "string",
          "name": "_description",
          "type": "string"
        },
        {
          "internalType": "uint256",
          "name": "_endDate",
          "type": "uint256"
        },
        {
          "internalType": "uint256",
          "name": "_requiredFund",
          "type": "uint256"
        }
      ],
      "name": "createFunding",
      "outputs": [],
      "stateMutability": "payable",
      "type": "function"
    },
    {
      "inputs": [
        {
          "internalType": "uint256",
          "name": "",
          "type": "uint256"
        }
      ],
      "name": "deployedProjects",
      "outputs": [
        {
          "internalType": "contract CrowdFunding",
          "name": "",
          "type": "address"
        }
      ],
      "stateMutability": "view",
      "type": "function"
    },
    {
      "inputs": [],
      "name": "getDeployedProjects",
      "outputs": [
        {
          "internalType": "contract CrowdFunding[]",
          "name": "",
          "type": "address[]"
        }
      ],
      "stateMutability": "view",
      "type": "function"
    },
    {
      "inputs": [],
      "name": "getDeployedProjectsCount",
      "outputs": [
        {
          "internalType": "uint256",
          "name": "",
          "type": "uint256"
        }
      ],
      "stateMutability": "view",
      "type": "function"
    }
  ],
  "bytecode": "0x608060405234801561001057600080fd5b506113e0806100206000396000f3fe60806040526004361061003f5760003560e01c80637ac3886e146100445780639ec6deaf1461006f578063b87f89ae146100a7578063f2c51d5f146100bc575b600080fd5b34801561005057600080fd5b506100596100da565b6040516100669190610208565b60405180910390f35b34801561007b57600080fd5b5061008f61008a366004610255565b61013c565b6040516001600160a01b039091168152602001610066565b6100ba6100b5366004610311565b610166565b005b3480156100c857600080fd5b50600054604051908152602001610066565b6060600080548060200260200160405190810160405280929190818152602001828054801561013257602002820191906000526020600020905b81546001600160a01b03168152600190910190602001808311610114575b5050505050905090565b6000818154811061014c57600080fd5b6000918252602090912001546001600160a01b0316905081565b600085338686868660405161017a906101fb565b610189969594939291906103dd565b604051809103906000f0801580156101a5573d6000803e3d6000fd5b50600080546001810182559080527f290decd9548b62a8d60345a988386fc84ba6bc95484008f6362f93160ef3e5630180546001600160a01b0319166001600160a01b0392909216919091179055505050505050565b610f7b8061043083390190565b6020808252825182820181905260009190848201906040850190845b818110156102495783516001600160a01b031683529284019291840191600101610224565b50909695505050505050565b60006020828403121561026757600080fd5b5035919050565b634e487b7160e01b600052604160045260246000fd5b600082601f83011261029557600080fd5b813567ffffffffffffffff808211156102b0576102b061026e565b604051601f8301601f19908116603f011681019082821181831017156102d8576102d861026e565b816040528381528660208588010111156102f157600080fd5b836020870160208301376000602085830101528094505050505092915050565b600080600080600060a0868803121561032957600080fd5b85359450602086013567ffffffffffffffff8082111561034857600080fd5b61035489838a01610284565b9550604088013591508082111561036a57600080fd5b5061037788828901610284565b9598949750949560608101359550608001359392505050565b6000815180845260005b818110156103b65760208185018101518683018201520161039a565b818111156103c8576000602083870101525b50601f01601f19169290920160200192915050565b8681526001600160a01b038616602082015260c06040820181905260009061040790830187610390565b82810360608401526104198187610390565b6080840195909552505060a0015294935050505056fe60806040523480156200001157600080fd5b5060405162000f7b38038062000f7b83398101604081905262000034916200022a565b835162000049906002906020870190620000b7565b50600780546001600160a01b0319166001600160a01b03871617905582516200007a906003906020860190620000b7565b50426004819055620000908362015180620002e7565b6200009c919062000309565b60055560065550505060089190915550600060095562000361565b828054620000c59062000324565b90600052602060002090601f016020900481019282620000e9576000855562000134565b82601f106200010457805160ff191683800117855562000134565b8280016001018555821562000134579182015b828111156200013457825182559160200191906001019062000117565b506200014292915062000146565b5090565b5b8082111562000142576000815560010162000147565b634e487b7160e01b600052604160045260246000fd5b600082601f8301126200018557600080fd5b81516001600160401b0380821115620001a257620001a26200015d565b604051601f8301601f19908116603f01168101908282118183101715620001cd57620001cd6200015d565b81604052838152602092508683858801011115620001ea57600080fd5b600091505b838210156200020e5785820183015181830184015290820190620001ef565b83821115620002205760008385830101525b9695505050505050565b60008060008060008060c087890312156200024457600080fd5b865160208801519096506001600160a01b03811681146200026457600080fd5b60408801519095506001600160401b03808211156200028257600080fd5b620002908a838b0162000173565b95506060890151915080821115620002a757600080fd5b50620002b689828a0162000173565b9350506080870151915060a087015190509295509295509295565b634e487b7160e01b600052601160045260246000fd5b6000816000190483118215151615620003045762000304620002d1565b500290565b600082198211156200031f576200031f620002d1565b500190565b600181811c908216806200033957607f821691505b602082108114156200035b57634e487b7160e01b600052602260045260246000fd5b50919050565b610c0a80620003716000396000f3fe6080604052600436106100fe5760003560e01c80638a9cfd5511610095578063c24a0f8b11610064578063c24a0f8b14610284578063d7bb99ba1461029a578063d7d1bbdb146102a2578063f251fc8c146102c2578063f851a440146102d857600080fd5b80638a9cfd5514610223578063937e09b114610243578063960e2d7d146102595780639fb42b1f1461026e57600080fd5b80636fe3cc32116100d15780636fe3cc32146101a85780637284e416146101ca57806375f26169146101df57806381d12c58146101f257600080fd5b806306fdde03146101035780630b97bc861461012e5780631f6d4942146101525780633c471c1914610192575b600080fd5b34801561010f57600080fd5b50610118610310565b6040516101259190610957565b60405180910390f35b34801561013a57600080fd5b5061014460045481565b604051908152602001610125565b34801561015e57600080fd5b5061018261016d36600461098d565b600a6020526000908152604090205460ff1681565b6040519015158152602001610125565b34801561019e57600080fd5b5061014460065481565b3480156101b457600080fd5b506101c86101c33660046109a8565b61039e565b005b3480156101d657600080fd5b5061011861052f565b3480156101eb57600080fd5b5047610144565b3480156101fe57600080fd5b5061021261020d3660046109a8565b61053c565b6040516101259594939291906109c1565b34801561022f57600080fd5b506101c861023e366004610a17565b610603565b34801561024f57600080fd5b5061014460085481565b34801561026557600080fd5b506101446106cf565b34801561027a57600080fd5b5061014460005481565b34801561029057600080fd5b5061014460055481565b6101c8610706565b3480156102ae57600080fd5b506101c86102bd3660046109a8565b6107ce565b3480156102ce57600080fd5b5061014460095481565b3480156102e457600080fd5b506007546102f8906001600160a01b031681565b6040516001600160a01b039091168152602001610125565b6002805461031d90610ae2565b80601f016020809104026020016040519081016040528092919081815260200182805461034990610ae2565b80156103965780601f1061036b57610100808354040283529160200191610396565b820191906000526020600020905b81548152906001019060200180831161037957829003601f168201915b505050505081565b60008181526001602052604090206007546001600160a01b0316331461040b5760405162461bcd60e51b815260206004820152601e60248201527f5468697320697320616e206f776e6572206f6e6c792066756e6374696f6e000060448201526064015b60405180910390fd5b6002810154600160a01b900460ff16156104765760405162461bcd60e51b815260206004820152602660248201527f546865207265717565737420686173206265656e2066696e616c697a656420616044820152656c726561647960d01b6064820152608401610402565b60026009546104859190610b33565b8160030154116104d75760405162461bcd60e51b815260206004820152601b60248201527f596f75206e656564206d6f726520766f746573206275646479212100000000006044820152606401610402565b600281015460018201546040516001600160a01b039092169181156108fc0291906000818181858888f19350505050158015610517573d6000803e3d6000fd5b50600201805460ff60a01b1916600160a01b17905550565b6003805461031d90610ae2565b60016020526000908152604090208054819061055790610ae2565b80601f016020809104026020016040519081016040528092919081815260200182805461058390610ae2565b80156105d05780601f106105a5576101008083540402835291602001916105d0565b820191906000526020600020905b8154815290600101906020018083116105b357829003601f168201915b5050505060018301546002840154600390940154929390926001600160a01b0382169250600160a01b90910460ff169085565b6007546001600160a01b0316331461065d5760405162461bcd60e51b815260206004820152601e60248201527f5468697320697320616e206f776e6572206f6e6c792066756e6374696f6e00006044820152606401610402565b600080546001908290818061067183610b55565b909155508152602080820192909252604001600020855190925061069a91839190870190610871565b5060018101929092556002820180546001600160a81b0319166001600160a01b03909216919091179055600060039091015550565b60006005544211156106f35760405162461bcd60e51b815260040161040290610b70565b426005546107019190610bbd565b905090565b60055442106107275760405162461bcd60e51b815260040161040290610b70565b6008543410156107855760405162461bcd60e51b8152602060048201526024808201527f506c656173652073656e64206d696e696d756d20616d6f756e74206f662065746044820152636865727360e01b6064820152608401610402565b336000908152600a602052604090205460ff166107cc57600980549060006107ac83610b55565b9091555050336000908152600a60205260409020805460ff191660011790555b565b6000818152600160209081526040808320338452600a9092529091205460ff1661083a5760405162461bcd60e51b815260206004820152601960248201527f596f7520617265206e6f74206120636f6e7472696275746f72000000000000006044820152606401610402565b60038101805490600061084c83610b55565b9091555050336000908152600490910160205260409020805460ff1916600117905550565b82805461087d90610ae2565b90600052602060002090601f01602090048101928261089f57600085556108e5565b82601f106108b857805160ff19168380011785556108e5565b828001600101855582156108e5579182015b828111156108e55782518255916020019190600101906108ca565b506108f19291506108f5565b5090565b5b808211156108f157600081556001016108f6565b6000815180845260005b8181101561093057602081850181015186830182015201610914565b81811115610942576000602083870101525b50601f01601f19169290920160200192915050565b60208152600061096a602083018461090a565b9392505050565b80356001600160a01b038116811461098857600080fd5b919050565b60006020828403121561099f57600080fd5b61096a82610971565b6000602082840312156109ba57600080fd5b5035919050565b60a0815260006109d460a083018861090a565b6020830196909652506001600160a01b039390931660408401529015156060830152608090910152919050565b634e487b7160e01b600052604160045260246000fd5b600080600060608486031215610a2c57600080fd5b833567ffffffffffffffff80821115610a4457600080fd5b818601915086601f830112610a5857600080fd5b813581811115610a6a57610a6a610a01565b604051601f8201601f19908116603f01168101908382118183101715610a9257610a92610a01565b81604052828152896020848701011115610aab57600080fd5b82602086016020830137600060208483010152809750505050505060208401359150610ad960408501610971565b90509250925092565b600181811c90821680610af657607f821691505b60208210811415610b1757634e487b7160e01b600052602260045260246000fd5b50919050565b634e487b7160e01b600052601160045260246000fd5b600082610b5057634e487b7160e01b600052601260045260246000fd5b500490565b6000600019821415610b6957610b69610b1d565b5060010190565b6020808252602d908201527f546865206475726174696f6e20666f722066756e64696e67207468697320707260408201526c37b532b1ba1034b99037bb32b960991b606082015260800190565b600082821015610bcf57610bcf610b1d565b50039056fea2646970667358221220a09657c9a53c1af82be338f44fed2eb48eb271f43be3f4ff0e27c30788913b1264736f6c63430008090033a26469706673582212205c6e1cce3899e1f62a5a04bac7c43510e3394a2b40578d89d50b48ba27bb64b264736f6c63430008090033",
  "linkReferences": {},
  "deployedLinkReferences": {}
}